{
  "_format": "hh-sol-artifact-1",
  "contractName": "StakeContract",
  "sourceName": "contracts/StakeContract.sol",
  "abi": [
    {
      "inputs": [
        {
          "internalType": "address",
          "name": "tokenAddress",
          "type": "address"
        }
      ],
      "stateMutability": "nonpayable",
      "type": "constructor"
    },
    {
      "anonymous": false,
      "inputs": [
        {
          "indexed": false,
          "internalType": "address",
          "name": "ad",
          "type": "address"
        },
        {
          "indexed": false,
          "internalType": "uint256",
          "name": "amount",
          "type": "uint256"
        }
      ],
      "name": "staked",
      "type": "event"
    },
    {
      "anonymous": false,
      "inputs": [
        {
          "indexed": false,
          "internalType": "address",
          "name": "ad",
          "type": "address"
        },
        {
          "indexed": false,
          "internalType": "uint256",
          "name": "amount",
          "type": "uint256"
        }
      ],
      "name": "unStaked",
      "type": "event"
    },
    {
      "inputs": [],
      "name": "_WSHEA",
      "outputs": [
        {
          "internalType": "contract IERC20",
          "name": "",
          "type": "address"
        }
      ],
      "stateMutability": "view",
      "type": "function"
    },
    {
      "inputs": [
        {
          "internalType": "address",
          "name": "account",
          "type": "address"
        }
      ],
      "name": "balanceOf",
      "outputs": [
        {
          "internalType": "uint256",
          "name": "",
          "type": "uint256"
        }
      ],
      "stateMutability": "view",
      "type": "function"
    },
    {
      "inputs": [
        {
          "internalType": "uint256",
          "name": "amount",
          "type": "uint256"
        }
      ],
      "name": "invest",
      "outputs": [],
      "stateMutability": "payable",
      "type": "function"
    },
    {
      "inputs": [
        {
          "internalType": "address",
          "name": "",
          "type": "address"
        }
      ],
      "name": "investors",
      "outputs": [
        {
          "internalType": "uint256",
          "name": "",
          "type": "uint256"
        }
      ],
      "stateMutability": "view",
      "type": "function"
    },
    {
      "inputs": [
        {
          "internalType": "uint256",
          "name": "amount",
          "type": "uint256"
        }
      ],
      "name": "unStake",
      "outputs": [],
      "stateMutability": "payable",
      "type": "function"
    }
  ],
  "bytecode": "0x608060405234801561001057600080fd5b50604051610c02380380610c02833981810160405281019061003291906100db565b806000806101000a81548173ffffffffffffffffffffffffffffffffffffffff021916908373ffffffffffffffffffffffffffffffffffffffff16021790555050610108565b600080fd5b600073ffffffffffffffffffffffffffffffffffffffff82169050919050565b60006100a88261007d565b9050919050565b6100b88161009d565b81146100c357600080fd5b50565b6000815190506100d5816100af565b92915050565b6000602082840312156100f1576100f0610078565b5b60006100ff848285016100c6565b91505092915050565b610aeb806101176000396000f3fe60806040526004361061004a5760003560e01c80632afcf4801461004f5780635d3eea911461006b5780636f7bc9be1461008757806370a08231146100c45780637640f09314610101575b600080fd5b6100696004803603810190610064919061062b565b61012c565b005b6100856004803603810190610080919061062b565b6102ef565b005b34801561009357600080fd5b506100ae60048036038101906100a991906106b6565b61056b565b6040516100bb91906106f2565b60405180910390f35b3480156100d057600080fd5b506100eb60048036038101906100e691906106b6565b610583565b6040516100f891906106f2565b60405180910390f35b34801561010d57600080fd5b506101166105cc565b604051610123919061076c565b60405180910390f35b6000811161016f576040517f08c379a00000000000000000000000000000000000000000000000000000000081526004016101669061080a565b60405180910390fd5b600033905060008054906101000a900473ffffffffffffffffffffffffffffffffffffffff1673ffffffffffffffffffffffffffffffffffffffff166323b872dd8230856040518463ffffffff1660e01b81526004016101d193929190610839565b602060405180830381600087803b1580156101eb57600080fd5b505af11580156101ff573d6000803e3d6000fd5b505050506040513d601f19601f8201168201806040525081019061022391906108a8565b5081600160008373ffffffffffffffffffffffffffffffffffffffff1673ffffffffffffffffffffffffffffffffffffffff1681526020019081526020016000205461026f9190610904565b600160008373ffffffffffffffffffffffffffffffffffffffff1673ffffffffffffffffffffffffffffffffffffffff168152602001908152602001600020819055507f8f169816223f856d6f6a5945e3f7c520efe6c139d4152b6bb65e454babb2f2cb81836040516102e392919061095a565b60405180910390a15050565b6000600160003373ffffffffffffffffffffffffffffffffffffffff1673ffffffffffffffffffffffffffffffffffffffff1681526020019081526020016000205411610371576040517f08c379a0000000000000000000000000000000000000000000000000000000008152600401610368906109cf565b60405180910390fd5b80600160003373ffffffffffffffffffffffffffffffffffffffff1673ffffffffffffffffffffffffffffffffffffffff1681526020019081526020016000205410156103f3576040517f08c379a00000000000000000000000000000000000000000000000000000000081526004016103ea90610a61565b60405180910390fd5b80600160003373ffffffffffffffffffffffffffffffffffffffff1673ffffffffffffffffffffffffffffffffffffffff1681526020019081526020016000205461043e9190610a81565b600160003373ffffffffffffffffffffffffffffffffffffffff1673ffffffffffffffffffffffffffffffffffffffff1681526020019081526020016000208190555060008054906101000a900473ffffffffffffffffffffffffffffffffffffffff1673ffffffffffffffffffffffffffffffffffffffff1663a9059cbb33836040518363ffffffff1660e01b81526004016104dc92919061095a565b602060405180830381600087803b1580156104f657600080fd5b505af115801561050a573d6000803e3d6000fd5b505050506040513d601f19601f8201168201806040525081019061052e91906108a8565b507f4422f6ee26bc9bf257a2a195c5dc2ce10475a4680b47c473b2bfed7f92a78225338260405161056092919061095a565b60405180910390a150565b60016020528060005260406000206000915090505481565b6000600160008373ffffffffffffffffffffffffffffffffffffffff1673ffffffffffffffffffffffffffffffffffffffff168152602001908152602001600020549050919050565b60008054906101000a900473ffffffffffffffffffffffffffffffffffffffff1681565b600080fd5b6000819050919050565b610608816105f5565b811461061357600080fd5b50565b600081359050610625816105ff565b92915050565b600060208284031215610641576106406105f0565b5b600061064f84828501610616565b91505092915050565b600073ffffffffffffffffffffffffffffffffffffffff82169050919050565b600061068382610658565b9050919050565b61069381610678565b811461069e57600080fd5b50565b6000813590506106b08161068a565b92915050565b6000602082840312156106cc576106cb6105f0565b5b60006106da848285016106a1565b91505092915050565b6106ec816105f5565b82525050565b600060208201905061070760008301846106e3565b92915050565b6000819050919050565b600061073261072d61072884610658565b61070d565b610658565b9050919050565b600061074482610717565b9050919050565b600061075682610739565b9050919050565b6107668161074b565b82525050565b6000602082019050610781600083018461075d565b92915050565b600082825260208201905092915050565b7f596f75206e65656420746f2073656e64206174206c6561737420736f6d65207460008201527f6f6b656e73000000000000000000000000000000000000000000000000000000602082015250565b60006107f4602583610787565b91506107ff82610798565b604082019050919050565b60006020820190508181036000830152610823816107e7565b9050919050565b61083381610678565b82525050565b600060608201905061084e600083018661082a565b61085b602083018561082a565b61086860408301846106e3565b949350505050565b60008115159050919050565b61088581610870565b811461089057600080fd5b50565b6000815190506108a28161087c565b92915050565b6000602082840312156108be576108bd6105f0565b5b60006108cc84828501610893565b91505092915050565b7f4e487b7100000000000000000000000000000000000000000000000000000000600052601160045260246000fd5b600061090f826105f5565b915061091a836105f5565b9250827fffffffffffffffffffffffffffffffffffffffffffffffffffffffffffffffff0382111561094f5761094e6108d5565b5b828201905092915050565b600060408201905061096f600083018561082a565b61097c60208301846106e3565b9392505050565b7f596f7520646f6e74206861766520616e79207374616b656420616d6f756e7400600082015250565b60006109b9601f83610787565b91506109c482610983565b602082019050919050565b600060208201905081810360008301526109e8816109ac565b9050919050565b7f596f752063616e7420756e7374616b65206d6f7265207468616e207374616b6560008201527f20616d6f756e7400000000000000000000000000000000000000000000000000602082015250565b6000610a4b602783610787565b9150610a56826109ef565b604082019050919050565b60006020820190508181036000830152610a7a81610a3e565b9050919050565b6000610a8c826105f5565b9150610a97836105f5565b925082821015610aaa57610aa96108d5565b5b82820390509291505056fea2646970667358221220d1eba9e2c97b3be69cc9c6e66f1d2162afd27d49a3481db4e2408bb4c4f8c57364736f6c63430008090033",
  "linkReferences": {},
  "deployedLinkReferences": {}
}