{
  "_format": "hh-sol-artifact-1",
  "contractName": "StakeContract",
  "sourceName": "contracts/StakeContract.sol",
  "abi": [
    {
      "inputs": [
        {
          "internalType": "address",
          "name": "tokenAddress",
          "type": "address"
        }
      ],
      "stateMutability": "nonpayable",
      "type": "constructor"
    },
    {
      "inputs": [],
      "name": "_WSHEA",
      "outputs": [
        {
          "internalType": "contract IERC20",
          "name": "",
          "type": "address"
        }
      ],
      "stateMutability": "view",
      "type": "function"
    },
    {
      "inputs": [
        {
          "internalType": "address",
          "name": "account",
          "type": "address"
        }
      ],
      "name": "balanceOf",
      "outputs": [
        {
          "internalType": "uint256",
          "name": "",
          "type": "uint256"
        }
      ],
      "stateMutability": "view",
      "type": "function"
    },
    {
      "inputs": [
        {
          "internalType": "uint256",
          "name": "amount",
          "type": "uint256"
        }
      ],
      "name": "invest",
      "outputs": [],
      "stateMutability": "payable",
      "type": "function"
    },
    {
      "inputs": [
        {
          "internalType": "address",
          "name": "",
          "type": "address"
        }
      ],
      "name": "investors",
      "outputs": [
        {
          "internalType": "uint256",
          "name": "",
          "type": "uint256"
        }
      ],
      "stateMutability": "view",
      "type": "function"
    },
    {
      "inputs": [
        {
          "internalType": "uint256",
          "name": "amount",
          "type": "uint256"
        }
      ],
      "name": "unStake",
      "outputs": [],
      "stateMutability": "payable",
      "type": "function"
    }
  ],
  "bytecode": "0x608060405234801561001057600080fd5b50604051610b90380380610b90833981810160405281019061003291906100db565b806000806101000a81548173ffffffffffffffffffffffffffffffffffffffff021916908373ffffffffffffffffffffffffffffffffffffffff16021790555050610108565b600080fd5b600073ffffffffffffffffffffffffffffffffffffffff82169050919050565b60006100a88261007d565b9050919050565b6100b88161009d565b81146100c357600080fd5b50565b6000815190506100d5816100af565b92915050565b6000602082840312156100f1576100f0610078565b5b60006100ff848285016100c6565b91505092915050565b610a79806101176000396000f3fe60806040526004361061004a5760003560e01c80632afcf4801461004f5780635d3eea911461006b5780636f7bc9be1461008757806370a08231146100c45780637640f09314610101575b600080fd5b610069600480360381019061006491906105b9565b61012c565b005b610085600480360381019061008091906105b9565b6102b6565b005b34801561009357600080fd5b506100ae60048036038101906100a99190610644565b6104f9565b6040516100bb9190610680565b60405180910390f35b3480156100d057600080fd5b506100eb60048036038101906100e69190610644565b610511565b6040516100f89190610680565b60405180910390f35b34801561010d57600080fd5b5061011661055a565b60405161012391906106fa565b60405180910390f35b6000811161016f576040517f08c379a000000000000000000000000000000000000000000000000000000000815260040161016690610798565b60405180910390fd5b600033905060008054906101000a900473ffffffffffffffffffffffffffffffffffffffff1673ffffffffffffffffffffffffffffffffffffffff166323b872dd8230856040518463ffffffff1660e01b81526004016101d1939291906107c7565b602060405180830381600087803b1580156101eb57600080fd5b505af11580156101ff573d6000803e3d6000fd5b505050506040513d601f19601f820116820180604052508101906102239190610836565b5081600160008373ffffffffffffffffffffffffffffffffffffffff1673ffffffffffffffffffffffffffffffffffffffff1681526020019081526020016000205461026f9190610892565b600160008373ffffffffffffffffffffffffffffffffffffffff1673ffffffffffffffffffffffffffffffffffffffff168152602001908152602001600020819055505050565b6000600160003373ffffffffffffffffffffffffffffffffffffffff1673ffffffffffffffffffffffffffffffffffffffff1681526020019081526020016000205411610338576040517f08c379a000000000000000000000000000000000000000000000000000000000815260040161032f90610934565b60405180910390fd5b80600160003373ffffffffffffffffffffffffffffffffffffffff1673ffffffffffffffffffffffffffffffffffffffff1681526020019081526020016000205410156103ba576040517f08c379a00000000000000000000000000000000000000000000000000000000081526004016103b1906109c6565b60405180910390fd5b80600160003373ffffffffffffffffffffffffffffffffffffffff1673ffffffffffffffffffffffffffffffffffffffff1681526020019081526020016000205461040591906109e6565b600160003373ffffffffffffffffffffffffffffffffffffffff1673ffffffffffffffffffffffffffffffffffffffff1681526020019081526020016000208190555060008054906101000a900473ffffffffffffffffffffffffffffffffffffffff1673ffffffffffffffffffffffffffffffffffffffff1663a9059cbb33836040518363ffffffff1660e01b81526004016104a3929190610a1a565b602060405180830381600087803b1580156104bd57600080fd5b505af11580156104d1573d6000803e3d6000fd5b505050506040513d601f19601f820116820180604052508101906104f59190610836565b5050565b60016020528060005260406000206000915090505481565b6000600160008373ffffffffffffffffffffffffffffffffffffffff1673ffffffffffffffffffffffffffffffffffffffff168152602001908152602001600020549050919050565b60008054906101000a900473ffffffffffffffffffffffffffffffffffffffff1681565b600080fd5b6000819050919050565b61059681610583565b81146105a157600080fd5b50565b6000813590506105b38161058d565b92915050565b6000602082840312156105cf576105ce61057e565b5b60006105dd848285016105a4565b91505092915050565b600073ffffffffffffffffffffffffffffffffffffffff82169050919050565b6000610611826105e6565b9050919050565b61062181610606565b811461062c57600080fd5b50565b60008135905061063e81610618565b92915050565b60006020828403121561065a5761065961057e565b5b60006106688482850161062f565b91505092915050565b61067a81610583565b82525050565b60006020820190506106956000830184610671565b92915050565b6000819050919050565b60006106c06106bb6106b6846105e6565b61069b565b6105e6565b9050919050565b60006106d2826106a5565b9050919050565b60006106e4826106c7565b9050919050565b6106f4816106d9565b82525050565b600060208201905061070f60008301846106eb565b92915050565b600082825260208201905092915050565b7f596f75206e65656420746f2073656e64206174206c6561737420736f6d65207460008201527f6f6b656e73000000000000000000000000000000000000000000000000000000602082015250565b6000610782602583610715565b915061078d82610726565b604082019050919050565b600060208201905081810360008301526107b181610775565b9050919050565b6107c181610606565b82525050565b60006060820190506107dc60008301866107b8565b6107e960208301856107b8565b6107f66040830184610671565b949350505050565b60008115159050919050565b610813816107fe565b811461081e57600080fd5b50565b6000815190506108308161080a565b92915050565b60006020828403121561084c5761084b61057e565b5b600061085a84828501610821565b91505092915050565b7f4e487b7100000000000000000000000000000000000000000000000000000000600052601160045260246000fd5b600061089d82610583565b91506108a883610583565b9250827fffffffffffffffffffffffffffffffffffffffffffffffffffffffffffffffff038211156108dd576108dc610863565b5b828201905092915050565b7f596f7520646f6e74206861766520616e79207374616b656420616d6f756e7400600082015250565b600061091e601f83610715565b9150610929826108e8565b602082019050919050565b6000602082019050818103600083015261094d81610911565b9050919050565b7f596f752063616e7420756e7374616b65206d6f7265207468616e207374616b6560008201527f20616d6f756e7400000000000000000000000000000000000000000000000000602082015250565b60006109b0602783610715565b91506109bb82610954565b604082019050919050565b600060208201905081810360008301526109df816109a3565b9050919050565b60006109f182610583565b91506109fc83610583565b925082821015610a0f57610a0e610863565b5b828203905092915050565b6000604082019050610a2f60008301856107b8565b610a3c6020830184610671565b939250505056fea2646970667358221220fc9296e0278fe33bf4d279f9b18bbaa4bc90ce2144e67b2c647ccf74a09fc71364736f6c63430008090033",
  "linkReferences": {},
  "deployedLinkReferences": {}
}