{
  "_format": "hh-sol-artifact-1",
  "contractName": "TokenMarket",
  "sourceName": "contracts/TokenMarket.sol",
  "abi": [
    {
      "inputs": [
        {
          "internalType": "address",
          "name": "tokenAddress",
          "type": "address"
        }
      ],
      "stateMutability": "nonpayable",
      "type": "constructor"
    },
    {
      "inputs": [],
      "name": "_WSHEA",
      "outputs": [
        {
          "internalType": "contract IERC20",
          "name": "",
          "type": "address"
        }
      ],
      "stateMutability": "view",
      "type": "function"
    },
    {
      "inputs": [
        {
          "internalType": "address",
          "name": "add",
          "type": "address"
        },
        {
          "internalType": "uint256",
          "name": "amount",
          "type": "uint256"
        }
      ],
      "name": "transfer",
      "outputs": [],
      "stateMutability": "payable",
      "type": "function"
    }
  ],
  "bytecode": "0x608060405234801561001057600080fd5b5060405161058d38038061058d833981810160405281019061003291906100db565b806000806101000a81548173ffffffffffffffffffffffffffffffffffffffff021916908373ffffffffffffffffffffffffffffffffffffffff16021790555050610108565b600080fd5b600073ffffffffffffffffffffffffffffffffffffffff82169050919050565b60006100a88261007d565b9050919050565b6100b88161009d565b81146100c357600080fd5b50565b6000815190506100d5816100af565b92915050565b6000602082840312156100f1576100f0610078565b5b60006100ff848285016100c6565b91505092915050565b610476806101176000396000f3fe6080604052600436106100295760003560e01c80637640f0931461002e578063a9059cbb14610059575b600080fd5b34801561003a57600080fd5b50610043610075565b604051610050919061020f565b60405180910390f35b610073600480360381019061006e91906102a3565b610099565b005b60008054906101000a900473ffffffffffffffffffffffffffffffffffffffff1681565b600081116100dc576040517f08c379a00000000000000000000000000000000000000000000000000000000081526004016100d390610366565b60405180910390fd5b60008054906101000a900473ffffffffffffffffffffffffffffffffffffffff1673ffffffffffffffffffffffffffffffffffffffff166323b872dd3084846040518463ffffffff1660e01b8152600401610139939291906103a4565b602060405180830381600087803b15801561015357600080fd5b505af1158015610167573d6000803e3d6000fd5b505050506040513d601f19601f8201168201806040525081019061018b9190610413565b505050565b600073ffffffffffffffffffffffffffffffffffffffff82169050919050565b6000819050919050565b60006101d56101d06101cb84610190565b6101b0565b610190565b9050919050565b60006101e7826101ba565b9050919050565b60006101f9826101dc565b9050919050565b610209816101ee565b82525050565b60006020820190506102246000830184610200565b92915050565b600080fd5b600061023a82610190565b9050919050565b61024a8161022f565b811461025557600080fd5b50565b60008135905061026781610241565b92915050565b6000819050919050565b6102808161026d565b811461028b57600080fd5b50565b60008135905061029d81610277565b92915050565b600080604083850312156102ba576102b961022a565b5b60006102c885828601610258565b92505060206102d98582860161028e565b9150509250929050565b600082825260208201905092915050565b7f596f75206e65656420746f2073656e64206174206c6561737420736f6d65207460008201527f6f6b656e73000000000000000000000000000000000000000000000000000000602082015250565b60006103506025836102e3565b915061035b826102f4565b604082019050919050565b6000602082019050818103600083015261037f81610343565b9050919050565b61038f8161022f565b82525050565b61039e8161026d565b82525050565b60006060820190506103b96000830186610386565b6103c66020830185610386565b6103d36040830184610395565b949350505050565b60008115159050919050565b6103f0816103db565b81146103fb57600080fd5b50565b60008151905061040d816103e7565b92915050565b6000602082840312156104295761042861022a565b5b6000610437848285016103fe565b9150509291505056fea2646970667358221220e0d3e5238084a605d866fd53c342afabe29ee92052df3c66004922dda1421e6864736f6c63430008090033",
  "linkReferences": {},
  "deployedLinkReferences": {}
}